{
  "_format": "hh-sol-artifact-1",
  "contractName": "Betcha",
  "sourceName": "contracts/Betcha.sol",
  "abi": [
    {
      "inputs": [],
      "name": "Betcha__BetAmountMusbtBeGreaterThanZero",
      "type": "error"
    },
    {
      "inputs": [],
      "name": "Betcha__BetIsNotOpen",
      "type": "error"
    },
    {
      "inputs": [],
      "name": "Betcha__IncorrectAmount",
      "type": "error"
    },
    {
      "inputs": [],
      "name": "Betcha__InvalidOpponent",
      "type": "error"
    },
    {
      "inputs": [],
      "name": "Betcha__NotResolvableYet",
      "type": "error"
    },
    {
      "inputs": [],
      "name": "Betcha__NotTheInvitedOpponent",
      "type": "error"
    },
    {
      "anonymous": false,
      "inputs": [
        {
          "indexed": false,
          "internalType": "uint256",
          "name": "betId",
          "type": "uint256"
        },
        {
          "indexed": false,
          "internalType": "address",
          "name": "opponent",
          "type": "address"
        }
      ],
      "name": "BetAccepted",
      "type": "event"
    },
    {
      "anonymous": false,
      "inputs": [
        {
          "indexed": false,
          "internalType": "uint256",
          "name": "betId",
          "type": "uint256"
        },
        {
          "indexed": false,
          "internalType": "address",
          "name": "creator",
          "type": "address"
        },
        {
          "indexed": false,
          "internalType": "uint256",
          "name": "amount",
          "type": "uint256"
        }
      ],
      "name": "BetCreated",
      "type": "event"
    },
    {
      "anonymous": false,
      "inputs": [
        {
          "indexed": false,
          "internalType": "uint256",
          "name": "betId",
          "type": "uint256"
        },
        {
          "indexed": false,
          "internalType": "address",
          "name": "winner",
          "type": "address"
        }
      ],
      "name": "BetResolved",
      "type": "event"
    },
    {
      "anonymous": false,
      "inputs": [
        {
          "indexed": false,
          "internalType": "address",
          "name": "to",
          "type": "address"
        },
        {
          "indexed": false,
          "internalType": "string",
          "name": "message",
          "type": "string"
        }
      ],
      "name": "NotificationSend",
      "type": "event"
    },
    {
      "inputs": [
        {
          "internalType": "uint256",
          "name": "_betId",
          "type": "uint256"
        }
      ],
      "name": "acceptBet",
      "outputs": [],
      "stateMutability": "payable",
      "type": "function"
    },
    {
      "inputs": [
        {
          "internalType": "uint256",
          "name": "",
          "type": "uint256"
        }
      ],
      "name": "bets",
      "outputs": [
        {
          "internalType": "address",
          "name": "creator",
          "type": "address"
        },
        {
          "internalType": "address",
          "name": "opponent",
          "type": "address"
        },
        {
          "internalType": "uint256",
          "name": "betAmount",
          "type": "uint256"
        },
        {
          "internalType": "uint256",
          "name": "distanceGoal",
          "type": "uint256"
        },
        {
          "internalType": "uint256",
          "name": "deadline",
          "type": "uint256"
        },
        {
          "internalType": "uint256",
          "name": "opponentDistance",
          "type": "uint256"
        },
        {
          "internalType": "string",
          "name": "betDescription",
          "type": "string"
        },
        {
          "internalType": "enum Betcha.BetStatus",
          "name": "status",
          "type": "uint8"
        }
      ],
      "stateMutability": "view",
      "type": "function"
    },
    {
      "inputs": [
        {
          "internalType": "address",
          "name": "_opponent",
          "type": "address"
        },
        {
          "internalType": "uint256",
          "name": "_distanceGoal",
          "type": "uint256"
        },
        {
          "internalType": "uint256",
          "name": "_deadline",
          "type": "uint256"
        },
        {
          "internalType": "string",
          "name": "_desc",
          "type": "string"
        }
      ],
      "name": "createBet",
      "outputs": [
        {
          "internalType": "uint256",
          "name": "",
          "type": "uint256"
        }
      ],
      "stateMutability": "payable",
      "type": "function"
    },
    {
      "inputs": [
        {
          "internalType": "uint256",
          "name": "",
          "type": "uint256"
        }
      ],
      "name": "stravaPlayer1Distance",
      "outputs": [
        {
          "internalType": "uint256",
          "name": "",
          "type": "uint256"
        }
      ],
      "stateMutability": "view",
      "type": "function"
    },
    {
      "inputs": [
        {
          "internalType": "uint256",
          "name": "",
          "type": "uint256"
        }
      ],
      "name": "stravaPlayer2Distance",
      "outputs": [
        {
          "internalType": "uint256",
          "name": "",
          "type": "uint256"
        }
      ],
      "stateMutability": "view",
      "type": "function"
    }
  ],
  "bytecode": "0x60806040526001600055348015601457600080fd5b506110a0806100246000396000f3fe60806040526004361061004a5760003560e01c806322af00fa1461004f57806362f6c618146100935780636c0c27e1146100d0578063a276f66f146100ec578063d80f7b611461011c575b600080fd5b34801561005b57600080fd5b50610076600480360381019061007191906107bd565b610159565b60405161008a989796959493929190610941565b60405180910390f35b34801561009f57600080fd5b506100ba60048036038101906100b591906107bd565b610276565b6040516100c791906109c6565b60405180910390f35b6100ea60048036038101906100e591906107bd565b61028e565b005b61010660048036038101906101019190610b42565b610444565b60405161011391906109c6565b60405180910390f35b34801561012857600080fd5b50610143600480360381019061013e91906107bd565b61075b565b60405161015091906109c6565b60405180910390f35b60016020528060005260406000206000915090508060000160009054906101000a900473ffffffffffffffffffffffffffffffffffffffff16908060010160009054906101000a900473ffffffffffffffffffffffffffffffffffffffff16908060020154908060030154908060040154908060050154908060060180546101e090610bf4565b80601f016020809104026020016040519081016040528092919081815260200182805461020c90610bf4565b80156102595780601f1061022e57610100808354040283529160200191610259565b820191906000526020600020905b81548152906001019060200180831161023c57829003601f168201915b5050505050908060070160009054906101000a900460ff16905088565b60056020528060005260406000206000915090505481565b6000600160008381526020019081526020016000209050600060028111156102b9576102b86108ca565b5b8160070160009054906101000a900460ff1660028111156102dd576102dc6108ca565b5b14610314576040517f38b49d6d00000000000000000000000000000000000000000000000000000000815260040160405180910390fd5b8060010160009054906101000a900473ffffffffffffffffffffffffffffffffffffffff1673ffffffffffffffffffffffffffffffffffffffff163373ffffffffffffffffffffffffffffffffffffffff161461039d576040517f3be1c86500000000000000000000000000000000000000000000000000000000815260040160405180910390fd5b806002015434146103da576040517f09a6c08a00000000000000000000000000000000000000000000000000000000815260040160405180910390fd5b60018160070160006101000a81548160ff02191690836002811115610402576104016108ca565b5b02179055507fb727a22534e43d337addefe6245e691859b29f7bf356bc7e6d77ff92070fe1248233604051610438929190610c25565b60405180910390a15050565b600080341161047f576040517ff5725d8e00000000000000000000000000000000000000000000000000000000815260040160405180910390fd5b600073ffffffffffffffffffffffffffffffffffffffff168573ffffffffffffffffffffffffffffffffffffffff16141580156104e857503373ffffffffffffffffffffffffffffffffffffffff168573ffffffffffffffffffffffffffffffffffffffff1614155b61051e576040517f090362c200000000000000000000000000000000000000000000000000000000815260040160405180910390fd5b600080600081548092919061053290610c7d565b9190505590506040518061010001604052803373ffffffffffffffffffffffffffffffffffffffff1681526020018773ffffffffffffffffffffffffffffffffffffffff16815260200134815260200186815260200162015180866105979190610cc5565b426105a29190610d07565b815260200160008152602001848152602001600060028111156105c8576105c76108ca565b5b8152506001600083815260200190815260200160002060008201518160000160006101000a81548173ffffffffffffffffffffffffffffffffffffffff021916908373ffffffffffffffffffffffffffffffffffffffff16021790555060208201518160010160006101000a81548173ffffffffffffffffffffffffffffffffffffffff021916908373ffffffffffffffffffffffffffffffffffffffff16021790555060408201518160020155606082015181600301556080820151816004015560a0820151816005015560c08201518160060190816106a99190610ee7565b5060e08201518160070160006101000a81548160ff021916908360028111156106d5576106d46108ca565b5b02179055509050507f5d51034605fe51fe0de6338bcab547034242e3f1b36e80aec6af07ebda031ded81333460405161071093929190610fb9565b60405180910390a17f80c35b597fa9861d08f14337d4721e4f5fede5dac71e070c5659b2e2692fa6d486604051610747919061103c565b60405180910390a180915050949350505050565b60066020528060005260406000206000915090505481565b6000604051905090565b600080fd5b600080fd5b6000819050919050565b61079a81610787565b81146107a557600080fd5b50565b6000813590506107b781610791565b92915050565b6000602082840312156107d3576107d261077d565b5b60006107e1848285016107a8565b91505092915050565b600073ffffffffffffffffffffffffffffffffffffffff82169050919050565b6000610815826107ea565b9050919050565b6108258161080a565b82525050565b61083481610787565b82525050565b600081519050919050565b600082825260208201905092915050565b60005b83811015610874578082015181840152602081019050610859565b60008484015250505050565b6000601f19601f8301169050919050565b600061089c8261083a565b6108a68185610845565b93506108b6818560208601610856565b6108bf81610880565b840191505092915050565b7f4e487b7100000000000000000000000000000000000000000000000000000000600052602160045260246000fd5b6003811061090a576109096108ca565b5b50565b600081905061091b826108f9565b919050565b600061092b8261090d565b9050919050565b61093b81610920565b82525050565b600061010082019050610957600083018b61081c565b610964602083018a61081c565b610971604083018961082b565b61097e606083018861082b565b61098b608083018761082b565b61099860a083018661082b565b81810360c08301526109aa8185610891565b90506109b960e0830184610932565b9998505050505050505050565b60006020820190506109db600083018461082b565b92915050565b6109ea8161080a565b81146109f557600080fd5b50565b600081359050610a07816109e1565b92915050565b600080fd5b600080fd5b7f4e487b7100000000000000000000000000000000000000000000000000000000600052604160045260246000fd5b610a4f82610880565b810181811067ffffffffffffffff82111715610a6e57610a6d610a17565b5b80604052505050565b6000610a81610773565b9050610a8d8282610a46565b919050565b600067ffffffffffffffff821115610aad57610aac610a17565b5b610ab682610880565b9050602081019050919050565b82818337600083830152505050565b6000610ae5610ae084610a92565b610a77565b905082815260208101848484011115610b0157610b00610a12565b5b610b0c848285610ac3565b509392505050565b600082601f830112610b2957610b28610a0d565b5b8135610b39848260208601610ad2565b91505092915050565b60008060008060808587031215610b5c57610b5b61077d565b5b6000610b6a878288016109f8565b9450506020610b7b878288016107a8565b9350506040610b8c878288016107a8565b925050606085013567ffffffffffffffff811115610bad57610bac610782565b5b610bb987828801610b14565b91505092959194509250565b7f4e487b7100000000000000000000000000000000000000000000000000000000600052602260045260246000fd5b60006002820490506001821680610c0c57607f821691505b602082108103610c1f57610c1e610bc5565b5b50919050565b6000604082019050610c3a600083018561082b565b610c47602083018461081c565b9392505050565b7f4e487b7100000000000000000000000000000000000000000000000000000000600052601160045260246000fd5b6000610c8882610787565b91507fffffffffffffffffffffffffffffffffffffffffffffffffffffffffffffffff8203610cba57610cb9610c4e565b5b600182019050919050565b6000610cd082610787565b9150610cdb83610787565b9250828202610ce981610787565b91508282048414831517610d0057610cff610c4e565b5b5092915050565b6000610d1282610787565b9150610d1d83610787565b9250828201905080821115610d3557610d34610c4e565b5b92915050565b60008190508160005260206000209050919050565b60006020601f8301049050919050565b600082821b905092915050565b600060088302610d9d7fffffffffffffffffffffffffffffffffffffffffffffffffffffffffffffffff82610d60565b610da78683610d60565b95508019841693508086168417925050509392505050565b6000819050919050565b6000610de4610ddf610dda84610787565b610dbf565b610787565b9050919050565b6000819050919050565b610dfe83610dc9565b610e12610e0a82610deb565b848454610d6d565b825550505050565b600090565b610e27610e1a565b610e32818484610df5565b505050565b5b81811015610e5657610e4b600082610e1f565b600181019050610e38565b5050565b601f821115610e9b57610e6c81610d3b565b610e7584610d50565b81016020851015610e84578190505b610e98610e9085610d50565b830182610e37565b50505b505050565b600082821c905092915050565b6000610ebe60001984600802610ea0565b1980831691505092915050565b6000610ed78383610ead565b9150826002028217905092915050565b610ef08261083a565b67ffffffffffffffff811115610f0957610f08610a17565b5b610f138254610bf4565b610f1e828285610e5a565b600060209050601f831160018114610f515760008415610f3f578287015190505b610f498582610ecb565b865550610fb1565b601f198416610f5f86610d3b565b60005b82811015610f8757848901518255600182019150602085019450602081019050610f62565b86831015610fa45784890151610fa0601f891682610ead565b8355505b6001600288020188555050505b505050505050565b6000606082019050610fce600083018661082b565b610fdb602083018561081c565b610fe8604083018461082b565b949350505050565b7f596f7520686176652061206e6577206265742100000000000000000000000000600082015250565b6000611026601383610845565b915061103182610ff0565b602082019050919050565b6000604082019050611051600083018461081c565b818103602083015261106281611019565b90509291505056fea2646970667358221220cd96e1dce31aa346f1fad51fa9121c2bb13347268220df8c673bafc60c60315d64736f6c634300081c0033",
  "linkReferences": {},
  "deployedLinkReferences": {}
}