{
  "_format": "hh-sol-artifact-1",
  "contractName": "Betcha",
  "sourceName": "contracts/Betcha.sol",
  "abi": [
    {
      "inputs": [],
      "name": "Betcha__BetAmountMusbtBeGreaterThanZero",
      "type": "error"
    },
    {
      "inputs": [],
      "name": "Betcha__BetIsNotOpen",
      "type": "error"
    },
    {
      "inputs": [],
      "name": "Betcha__IncorrectAmount",
      "type": "error"
    },
    {
      "inputs": [],
      "name": "Betcha__InvalidOpponent",
      "type": "error"
    },
    {
      "inputs": [],
      "name": "Betcha__NotResolvableYet",
      "type": "error"
    },
    {
      "inputs": [],
      "name": "Betcha__NotTheInvitedOpponent",
      "type": "error"
    },
    {
      "anonymous": false,
      "inputs": [
        {
          "indexed": false,
          "internalType": "uint256",
          "name": "betId",
          "type": "uint256"
        },
        {
          "indexed": false,
          "internalType": "address",
          "name": "opponent",
          "type": "address"
        }
      ],
      "name": "BetAccepted",
      "type": "event"
    },
    {
      "anonymous": false,
      "inputs": [
        {
          "indexed": false,
          "internalType": "uint256",
          "name": "betId",
          "type": "uint256"
        },
        {
          "indexed": false,
          "internalType": "address",
          "name": "creator",
          "type": "address"
        },
        {
          "indexed": false,
          "internalType": "uint256",
          "name": "amount",
          "type": "uint256"
        }
      ],
      "name": "BetCreated",
      "type": "event"
    },
    {
      "anonymous": false,
      "inputs": [
        {
          "indexed": false,
          "internalType": "uint256",
          "name": "betId",
          "type": "uint256"
        },
        {
          "indexed": false,
          "internalType": "address",
          "name": "winner",
          "type": "address"
        }
      ],
      "name": "BetResolved",
      "type": "event"
    },
    {
      "anonymous": false,
      "inputs": [
        {
          "indexed": false,
          "internalType": "address",
          "name": "to",
          "type": "address"
        },
        {
          "indexed": false,
          "internalType": "string",
          "name": "message",
          "type": "string"
        }
      ],
      "name": "NotificationSend",
      "type": "event"
    },
    {
      "inputs": [
        {
          "internalType": "uint256",
          "name": "_betId",
          "type": "uint256"
        }
      ],
      "name": "acceptBet",
      "outputs": [],
      "stateMutability": "payable",
      "type": "function"
    },
    {
      "inputs": [
        {
          "internalType": "uint256",
          "name": "",
          "type": "uint256"
        }
      ],
      "name": "bets",
      "outputs": [
        {
          "internalType": "address",
          "name": "creator",
          "type": "address"
        },
        {
          "internalType": "address",
          "name": "opponent",
          "type": "address"
        },
        {
          "internalType": "uint256",
          "name": "betAmount",
          "type": "uint256"
        },
        {
          "internalType": "uint256",
          "name": "distanceGoal",
          "type": "uint256"
        },
        {
          "internalType": "uint256",
          "name": "deadline",
          "type": "uint256"
        },
        {
          "internalType": "uint256",
          "name": "opponentDistance",
          "type": "uint256"
        },
        {
          "internalType": "string",
          "name": "betDescription",
          "type": "string"
        },
        {
          "internalType": "enum Betcha.BetStatus",
          "name": "status",
          "type": "uint8"
        }
      ],
      "stateMutability": "view",
      "type": "function"
    },
    {
      "inputs": [
        {
          "internalType": "address",
          "name": "_opponent",
          "type": "address"
        },
        {
          "internalType": "uint256",
          "name": "_distanceGoal",
          "type": "uint256"
        },
        {
          "internalType": "uint256",
          "name": "_deadline",
          "type": "uint256"
        },
        {
          "internalType": "string",
          "name": "_desc",
          "type": "string"
        }
      ],
      "name": "createBet",
      "outputs": [
        {
          "internalType": "uint256",
          "name": "",
          "type": "uint256"
        }
      ],
      "stateMutability": "payable",
      "type": "function"
    }
  ],
  "bytecode": "0x60806040526001600055348015601457600080fd5b50610fed806100246000396000f3fe6080604052600436106100345760003560e01c806322af00fa146100395780636c0c27e11461007d578063a276f66f14610099575b600080fd5b34801561004557600080fd5b50610060600480360381019061005b919061070a565b6100c9565b60405161007498979695949392919061088e565b60405180910390f35b6100976004803603810190610092919061070a565b6101e6565b005b6100b360048036038101906100ae9190610a74565b61039c565b6040516100c09190610af7565b60405180910390f35b60016020528060005260406000206000915090508060000160009054906101000a900473ffffffffffffffffffffffffffffffffffffffff16908060010160009054906101000a900473ffffffffffffffffffffffffffffffffffffffff169080600201549080600301549080600401549080600501549080600601805461015090610b41565b80601f016020809104026020016040519081016040528092919081815260200182805461017c90610b41565b80156101c95780601f1061019e576101008083540402835291602001916101c9565b820191906000526020600020905b8154815290600101906020018083116101ac57829003601f168201915b5050505050908060070160009054906101000a900460ff16905088565b60006001600083815260200190815260200160002090506000600281111561021157610210610817565b5b8160070160009054906101000a900460ff16600281111561023557610234610817565b5b1461026c576040517f38b49d6d00000000000000000000000000000000000000000000000000000000815260040160405180910390fd5b8060010160009054906101000a900473ffffffffffffffffffffffffffffffffffffffff1673ffffffffffffffffffffffffffffffffffffffff163373ffffffffffffffffffffffffffffffffffffffff16146102f5576040517f3be1c86500000000000000000000000000000000000000000000000000000000815260040160405180910390fd5b80600201543414610332576040517f09a6c08a00000000000000000000000000000000000000000000000000000000815260040160405180910390fd5b60018160070160006101000a81548160ff0219169083600281111561035a57610359610817565b5b02179055507fb727a22534e43d337addefe6245e691859b29f7bf356bc7e6d77ff92070fe1248233604051610390929190610b72565b60405180910390a15050565b60008034116103d7576040517ff5725d8e00000000000000000000000000000000000000000000000000000000815260040160405180910390fd5b600073ffffffffffffffffffffffffffffffffffffffff168573ffffffffffffffffffffffffffffffffffffffff161415801561044057503373ffffffffffffffffffffffffffffffffffffffff168573ffffffffffffffffffffffffffffffffffffffff1614155b610476576040517f090362c200000000000000000000000000000000000000000000000000000000815260040160405180910390fd5b600080600081548092919061048a90610bca565b9190505590506040518061010001604052803373ffffffffffffffffffffffffffffffffffffffff1681526020018773ffffffffffffffffffffffffffffffffffffffff1681526020013481526020016103e8876104e89190610c12565b815260200162015180866104fc9190610c12565b426105079190610c54565b8152602001600081526020018481526020016000600281111561052d5761052c610817565b5b8152506001600083815260200190815260200160002060008201518160000160006101000a81548173ffffffffffffffffffffffffffffffffffffffff021916908373ffffffffffffffffffffffffffffffffffffffff16021790555060208201518160010160006101000a81548173ffffffffffffffffffffffffffffffffffffffff021916908373ffffffffffffffffffffffffffffffffffffffff16021790555060408201518160020155606082015181600301556080820151816004015560a0820151816005015560c082015181600601908161060e9190610e34565b5060e08201518160070160006101000a81548160ff0219169083600281111561063a57610639610817565b5b02179055509050507f5d51034605fe51fe0de6338bcab547034242e3f1b36e80aec6af07ebda031ded81333460405161067593929190610f06565b60405180910390a17f80c35b597fa9861d08f14337d4721e4f5fede5dac71e070c5659b2e2692fa6d4866040516106ac9190610f89565b60405180910390a180915050949350505050565b6000604051905090565b600080fd5b600080fd5b6000819050919050565b6106e7816106d4565b81146106f257600080fd5b50565b600081359050610704816106de565b92915050565b6000602082840312156107205761071f6106ca565b5b600061072e848285016106f5565b91505092915050565b600073ffffffffffffffffffffffffffffffffffffffff82169050919050565b600061076282610737565b9050919050565b61077281610757565b82525050565b610781816106d4565b82525050565b600081519050919050565b600082825260208201905092915050565b60005b838110156107c15780820151818401526020810190506107a6565b60008484015250505050565b6000601f19601f8301169050919050565b60006107e982610787565b6107f38185610792565b93506108038185602086016107a3565b61080c816107cd565b840191505092915050565b7f4e487b7100000000000000000000000000000000000000000000000000000000600052602160045260246000fd5b6003811061085757610856610817565b5b50565b600081905061086882610846565b919050565b60006108788261085a565b9050919050565b6108888161086d565b82525050565b6000610100820190506108a4600083018b610769565b6108b1602083018a610769565b6108be6040830189610778565b6108cb6060830188610778565b6108d86080830187610778565b6108e560a0830186610778565b81810360c08301526108f781856107de565b905061090660e083018461087f565b9998505050505050505050565b61091c81610757565b811461092757600080fd5b50565b60008135905061093981610913565b92915050565b600080fd5b600080fd5b7f4e487b7100000000000000000000000000000000000000000000000000000000600052604160045260246000fd5b610981826107cd565b810181811067ffffffffffffffff821117156109a05761099f610949565b5b80604052505050565b60006109b36106c0565b90506109bf8282610978565b919050565b600067ffffffffffffffff8211156109df576109de610949565b5b6109e8826107cd565b9050602081019050919050565b82818337600083830152505050565b6000610a17610a12846109c4565b6109a9565b905082815260208101848484011115610a3357610a32610944565b5b610a3e8482856109f5565b509392505050565b600082601f830112610a5b57610a5a61093f565b5b8135610a6b848260208601610a04565b91505092915050565b60008060008060808587031215610a8e57610a8d6106ca565b5b6000610a9c8782880161092a565b9450506020610aad878288016106f5565b9350506040610abe878288016106f5565b925050606085013567ffffffffffffffff811115610adf57610ade6106cf565b5b610aeb87828801610a46565b91505092959194509250565b6000602082019050610b0c6000830184610778565b92915050565b7f4e487b7100000000000000000000000000000000000000000000000000000000600052602260045260246000fd5b60006002820490506001821680610b5957607f821691505b602082108103610b6c57610b6b610b12565b5b50919050565b6000604082019050610b876000830185610778565b610b946020830184610769565b9392505050565b7f4e487b7100000000000000000000000000000000000000000000000000000000600052601160045260246000fd5b6000610bd5826106d4565b91507fffffffffffffffffffffffffffffffffffffffffffffffffffffffffffffffff8203610c0757610c06610b9b565b5b600182019050919050565b6000610c1d826106d4565b9150610c28836106d4565b9250828202610c36816106d4565b91508282048414831517610c4d57610c4c610b9b565b5b5092915050565b6000610c5f826106d4565b9150610c6a836106d4565b9250828201905080821115610c8257610c81610b9b565b5b92915050565b60008190508160005260206000209050919050565b60006020601f8301049050919050565b600082821b905092915050565b600060088302610cea7fffffffffffffffffffffffffffffffffffffffffffffffffffffffffffffffff82610cad565b610cf48683610cad565b95508019841693508086168417925050509392505050565b6000819050919050565b6000610d31610d2c610d27846106d4565b610d0c565b6106d4565b9050919050565b6000819050919050565b610d4b83610d16565b610d5f610d5782610d38565b848454610cba565b825550505050565b600090565b610d74610d67565b610d7f818484610d42565b505050565b5b81811015610da357610d98600082610d6c565b600181019050610d85565b5050565b601f821115610de857610db981610c88565b610dc284610c9d565b81016020851015610dd1578190505b610de5610ddd85610c9d565b830182610d84565b50505b505050565b600082821c905092915050565b6000610e0b60001984600802610ded565b1980831691505092915050565b6000610e248383610dfa565b9150826002028217905092915050565b610e3d82610787565b67ffffffffffffffff811115610e5657610e55610949565b5b610e608254610b41565b610e6b828285610da7565b600060209050601f831160018114610e9e5760008415610e8c578287015190505b610e968582610e18565b865550610efe565b601f198416610eac86610c88565b60005b82811015610ed457848901518255600182019150602085019450602081019050610eaf565b86831015610ef15784890151610eed601f891682610dfa565b8355505b6001600288020188555050505b505050505050565b6000606082019050610f1b6000830186610778565b610f286020830185610769565b610f356040830184610778565b949350505050565b7f596f7520686176652061206e6577206265742100000000000000000000000000600082015250565b6000610f73601383610792565b9150610f7e82610f3d565b602082019050919050565b6000604082019050610f9e6000830184610769565b8181036020830152610faf81610f66565b90509291505056fea2646970667358221220237a5a68a15f165c8b89c83ba20a0488a31676576bb51dd200e643ed461536ef64736f6c634300081c0033",
  "linkReferences": {},
  "deployedLinkReferences": {}
}